{
  "_format": "hh-sol-artifact-1",
  "contractName": "NFTMarketplace",
  "sourceName": "contracts/NFTMarketplace.sol",
  "abi": [
    {
      "inputs": [],
      "stateMutability": "nonpayable",
      "type": "constructor"
    },
    {
      "anonymous": false,
      "inputs": [
        {
          "indexed": true,
          "internalType": "address",
          "name": "owner",
          "type": "address"
        },
        {
          "indexed": true,
          "internalType": "address",
          "name": "approved",
          "type": "address"
        },
        {
          "indexed": true,
          "internalType": "uint256",
          "name": "tokenId",
          "type": "uint256"
        }
      ],
      "name": "Approval",
      "type": "event"
    },
    {
      "anonymous": false,
      "inputs": [
        {
          "indexed": true,
          "internalType": "address",
          "name": "owner",
          "type": "address"
        },
        {
          "indexed": true,
          "internalType": "address",
          "name": "operator",
          "type": "address"
        },
        {
          "indexed": false,
          "internalType": "bool",
          "name": "approved",
          "type": "bool"
        }
      ],
      "name": "ApprovalForAll",
      "type": "event"
    },
    {
      "anonymous": false,
      "inputs": [
        {
          "indexed": false,
          "internalType": "uint256",
          "name": "_fromTokenId",
          "type": "uint256"
        },
        {
          "indexed": false,
          "internalType": "uint256",
          "name": "_toTokenId",
          "type": "uint256"
        }
      ],
      "name": "BatchMetadataUpdate",
      "type": "event"
    },
    {
      "anonymous": false,
      "inputs": [
        {
          "indexed": true,
          "internalType": "uint256",
          "name": "tokenId",
          "type": "uint256"
        },
        {
          "indexed": false,
          "internalType": "address",
          "name": "creator",
          "type": "address"
        },
        {
          "indexed": false,
          "internalType": "address",
          "name": "seller",
          "type": "address"
        },
        {
          "indexed": false,
          "internalType": "address",
          "name": "owner",
          "type": "address"
        },
        {
          "indexed": false,
          "internalType": "uint256",
          "name": "price",
          "type": "uint256"
        },
        {
          "indexed": false,
          "internalType": "bool",
          "name": "sold",
          "type": "bool"
        },
        {
          "indexed": false,
          "internalType": "bool",
          "name": "auction",
          "type": "bool"
        },
        {
          "indexed": false,
          "internalType": "uint256",
          "name": "endTime",
          "type": "uint256"
        },
        {
          "indexed": false,
          "internalType": "bool",
          "name": "ended",
          "type": "bool"
        },
        {
          "indexed": false,
          "internalType": "uint256",
          "name": "highestBid",
          "type": "uint256"
        },
        {
          "indexed": false,
          "internalType": "address",
          "name": "highestBidder",
          "type": "address"
        }
      ],
      "name": "MarketItemCreated",
      "type": "event"
    },
    {
      "anonymous": false,
      "inputs": [
        {
          "indexed": false,
          "internalType": "uint256",
          "name": "_tokenId",
          "type": "uint256"
        }
      ],
      "name": "MetadataUpdate",
      "type": "event"
    },
    {
      "anonymous": false,
      "inputs": [
        {
          "indexed": true,
          "internalType": "address",
          "name": "from",
          "type": "address"
        },
        {
          "indexed": true,
          "internalType": "address",
          "name": "to",
          "type": "address"
        },
        {
          "indexed": true,
          "internalType": "uint256",
          "name": "tokenId",
          "type": "uint256"
        }
      ],
      "name": "Transfer",
      "type": "event"
    },
    {
      "anonymous": false,
      "inputs": [
        {
          "indexed": false,
          "internalType": "address",
          "name": "sender",
          "type": "address"
        },
        {
          "indexed": false,
          "internalType": "uint256",
          "name": "amount",
          "type": "uint256"
        },
        {
          "indexed": false,
          "internalType": "bool",
          "name": "bidder",
          "type": "bool"
        }
      ],
      "name": "Withdraw",
      "type": "event"
    },
    {
      "inputs": [
        {
          "internalType": "address",
          "name": "to",
          "type": "address"
        },
        {
          "internalType": "uint256",
          "name": "tokenId",
          "type": "uint256"
        }
      ],
      "name": "approve",
      "outputs": [],
      "stateMutability": "nonpayable",
      "type": "function"
    },
    {
      "inputs": [
        {
          "internalType": "address",
          "name": "owner",
          "type": "address"
        }
      ],
      "name": "balanceOf",
      "outputs": [
        {
          "internalType": "uint256",
          "name": "",
          "type": "uint256"
        }
      ],
      "stateMutability": "view",
      "type": "function"
    },
    {
      "inputs": [
        {
          "internalType": "uint256",
          "name": "tokenId",
          "type": "uint256"
        }
      ],
      "name": "bid",
      "outputs": [],
      "stateMutability": "payable",
      "type": "function"
    },
    {
      "inputs": [
        {
          "internalType": "uint256",
          "name": "",
          "type": "uint256"
        },
        {
          "internalType": "address",
          "name": "",
          "type": "address"
        }
      ],
      "name": "bids",
      "outputs": [
        {
          "internalType": "uint256",
          "name": "",
          "type": "uint256"
        }
      ],
      "stateMutability": "view",
      "type": "function"
    },
    {
      "inputs": [
        {
          "internalType": "uint256",
          "name": "tokenId",
          "type": "uint256"
        }
      ],
      "name": "createMarketSale",
      "outputs": [],
      "stateMutability": "payable",
      "type": "function"
    },
    {
      "inputs": [
        {
          "internalType": "string",
          "name": "tokenURI",
          "type": "string"
        },
        {
          "internalType": "uint256",
          "name": "price",
          "type": "uint256"
        },
        {
          "internalType": "bool",
          "name": "auction",
          "type": "bool"
        },
        {
          "internalType": "uint256",
          "name": "endTime",
          "type": "uint256"
        }
      ],
      "name": "createToken",
      "outputs": [
        {
          "internalType": "uint256",
          "name": "",
          "type": "uint256"
        }
      ],
      "stateMutability": "payable",
      "type": "function"
    },
    {
      "inputs": [
        {
          "internalType": "uint256",
          "name": "tokenId",
          "type": "uint256"
        }
      ],
      "name": "endAuction",
      "outputs": [],
      "stateMutability": "nonpayable",
      "type": "function"
    },
    {
      "inputs": [],
      "name": "fetchAuctionItems",
      "outputs": [
        {
          "components": [
            {
              "internalType": "uint256",
              "name": "tokenId",
              "type": "uint256"
            },
            {
              "internalType": "address",
              "name": "creator",
              "type": "address"
            },
            {
              "internalType": "address payable",
              "name": "seller",
              "type": "address"
            },
            {
              "internalType": "address payable",
              "name": "owner",
              "type": "address"
            },
            {
              "internalType": "uint256",
              "name": "price",
              "type": "uint256"
            },
            {
              "internalType": "bool",
              "name": "sold",
              "type": "bool"
            },
            {
              "internalType": "bool",
              "name": "auction",
              "type": "bool"
            },
            {
              "internalType": "uint256",
              "name": "endTime",
              "type": "uint256"
            },
            {
              "internalType": "bool",
              "name": "ended",
              "type": "bool"
            },
            {
              "internalType": "uint256",
              "name": "highestBid",
              "type": "uint256"
            },
            {
              "internalType": "address payable",
              "name": "highestBidder",
              "type": "address"
            }
          ],
          "internalType": "struct NFTMarketplace.MarketItem[]",
          "name": "",
          "type": "tuple[]"
        }
      ],
      "stateMutability": "view",
      "type": "function"
    },
    {
      "inputs": [],
      "name": "fetchAuctionedItems",
      "outputs": [
        {
          "components": [
            {
              "internalType": "uint256",
              "name": "tokenId",
              "type": "uint256"
            },
            {
              "internalType": "address",
              "name": "creator",
              "type": "address"
            },
            {
              "internalType": "address payable",
              "name": "seller",
              "type": "address"
            },
            {
              "internalType": "address payable",
              "name": "owner",
              "type": "address"
            },
            {
              "internalType": "uint256",
              "name": "price",
              "type": "uint256"
            },
            {
              "internalType": "bool",
              "name": "sold",
              "type": "bool"
            },
            {
              "internalType": "bool",
              "name": "auction",
              "type": "bool"
            },
            {
              "internalType": "uint256",
              "name": "endTime",
              "type": "uint256"
            },
            {
              "internalType": "bool",
              "name": "ended",
              "type": "bool"
            },
            {
              "internalType": "uint256",
              "name": "highestBid",
              "type": "uint256"
            },
            {
              "internalType": "address payable",
              "name": "highestBidder",
              "type": "address"
            }
          ],
          "internalType": "struct NFTMarketplace.MarketItem[]",
          "name": "",
          "type": "tuple[]"
        }
      ],
      "stateMutability": "view",
      "type": "function"
    },
    {
      "inputs": [],
      "name": "fetchCreatedItems",
      "outputs": [
        {
          "components": [
            {
              "internalType": "uint256",
              "name": "tokenId",
              "type": "uint256"
            },
            {
              "internalType": "address",
              "name": "creator",
              "type": "address"
            },
            {
              "internalType": "address payable",
              "name": "seller",
              "type": "address"
            },
            {
              "internalType": "address payable",
              "name": "owner",
              "type": "address"
            },
            {
              "internalType": "uint256",
              "name": "price",
              "type": "uint256"
            },
            {
              "internalType": "bool",
              "name": "sold",
              "type": "bool"
            },
            {
              "internalType": "bool",
              "name": "auction",
              "type": "bool"
            },
            {
              "internalType": "uint256",
              "name": "endTime",
              "type": "uint256"
            },
            {
              "internalType": "bool",
              "name": "ended",
              "type": "bool"
            },
            {
              "internalType": "uint256",
              "name": "highestBid",
              "type": "uint256"
            },
            {
              "internalType": "address payable",
              "name": "highestBidder",
              "type": "address"
            }
          ],
          "internalType": "struct NFTMarketplace.MarketItem[]",
          "name": "",
          "type": "tuple[]"
        }
      ],
      "stateMutability": "view",
      "type": "function"
    },
    {
      "inputs": [],
      "name": "fetchItemsListed",
      "outputs": [
        {
          "components": [
            {
              "internalType": "uint256",
              "name": "tokenId",
              "type": "uint256"
            },
            {
              "internalType": "address",
              "name": "creator",
              "type": "address"
            },
            {
              "internalType": "address payable",
              "name": "seller",
              "type": "address"
            },
            {
              "internalType": "address payable",
              "name": "owner",
              "type": "address"
            },
            {
              "internalType": "uint256",
              "name": "price",
              "type": "uint256"
            },
            {
              "internalType": "bool",
              "name": "sold",
              "type": "bool"
            },
            {
              "internalType": "bool",
              "name": "auction",
              "type": "bool"
            },
            {
              "internalType": "uint256",
              "name": "endTime",
              "type": "uint256"
            },
            {
              "internalType": "bool",
              "name": "ended",
              "type": "bool"
            },
            {
              "internalType": "uint256",
              "name": "highestBid",
              "type": "uint256"
            },
            {
              "internalType": "address payable",
              "name": "highestBidder",
              "type": "address"
            }
          ],
          "internalType": "struct NFTMarketplace.MarketItem[]",
          "name": "",
          "type": "tuple[]"
        }
      ],
      "stateMutability": "view",
      "type": "function"
    },
    {
      "inputs": [],
      "name": "fetchMarketItems",
      "outputs": [
        {
          "components": [
            {
              "internalType": "uint256",
              "name": "tokenId",
              "type": "uint256"
            },
            {
              "internalType": "address",
              "name": "creator",
              "type": "address"
            },
            {
              "internalType": "address payable",
              "name": "seller",
              "type": "address"
            },
            {
              "internalType": "address payable",
              "name": "owner",
              "type": "address"
            },
            {
              "internalType": "uint256",
              "name": "price",
              "type": "uint256"
            },
            {
              "internalType": "bool",
              "name": "sold",
              "type": "bool"
            },
            {
              "internalType": "bool",
              "name": "auction",
              "type": "bool"
            },
            {
              "internalType": "uint256",
              "name": "endTime",
              "type": "uint256"
            },
            {
              "internalType": "bool",
              "name": "ended",
              "type": "bool"
            },
            {
              "internalType": "uint256",
              "name": "highestBid",
              "type": "uint256"
            },
            {
              "internalType": "address payable",
              "name": "highestBidder",
              "type": "address"
            }
          ],
          "internalType": "struct NFTMarketplace.MarketItem[]",
          "name": "",
          "type": "tuple[]"
        }
      ],
      "stateMutability": "view",
      "type": "function"
    },
    {
      "inputs": [],
      "name": "fetchMyNFTs",
      "outputs": [
        {
          "components": [
            {
              "internalType": "uint256",
              "name": "tokenId",
              "type": "uint256"
            },
            {
              "internalType": "address",
              "name": "creator",
              "type": "address"
            },
            {
              "internalType": "address payable",
              "name": "seller",
              "type": "address"
            },
            {
              "internalType": "address payable",
              "name": "owner",
              "type": "address"
            },
            {
              "internalType": "uint256",
              "name": "price",
              "type": "uint256"
            },
            {
              "internalType": "bool",
              "name": "sold",
              "type": "bool"
            },
            {
              "internalType": "bool",
              "name": "auction",
              "type": "bool"
            },
            {
              "internalType": "uint256",
              "name": "endTime",
              "type": "uint256"
            },
            {
              "internalType": "bool",
              "name": "ended",
              "type": "bool"
            },
            {
              "internalType": "uint256",
              "name": "highestBid",
              "type": "uint256"
            },
            {
              "internalType": "address payable",
              "name": "highestBidder",
              "type": "address"
            }
          ],
          "internalType": "struct NFTMarketplace.MarketItem[]",
          "name": "",
          "type": "tuple[]"
        }
      ],
      "stateMutability": "view",
      "type": "function"
    },
    {
      "inputs": [
        {
          "internalType": "uint256",
          "name": "tokenId",
          "type": "uint256"
        }
      ],
      "name": "getApproved",
      "outputs": [
        {
          "internalType": "address",
          "name": "",
          "type": "address"
        }
      ],
      "stateMutability": "view",
      "type": "function"
    },
    {
      "inputs": [],
      "name": "getListingPrice",
      "outputs": [
        {
          "internalType": "uint256",
          "name": "",
          "type": "uint256"
        }
      ],
      "stateMutability": "view",
      "type": "function"
    },
    {
      "inputs": [
        {
          "internalType": "address",
          "name": "owner",
          "type": "address"
        },
        {
          "internalType": "address",
          "name": "operator",
          "type": "address"
        }
      ],
      "name": "isApprovedForAll",
      "outputs": [
        {
          "internalType": "bool",
          "name": "",
          "type": "bool"
        }
      ],
      "stateMutability": "view",
      "type": "function"
    },
    {
      "inputs": [],
      "name": "name",
      "outputs": [
        {
          "internalType": "string",
          "name": "",
          "type": "string"
        }
      ],
      "stateMutability": "view",
      "type": "function"
    },
    {
      "inputs": [
        {
          "internalType": "uint256",
          "name": "tokenId",
          "type": "uint256"
        }
      ],
      "name": "ownerOf",
      "outputs": [
        {
          "internalType": "address",
          "name": "",
          "type": "address"
        }
      ],
      "stateMutability": "view",
      "type": "function"
    },
    {
      "inputs": [
        {
          "internalType": "uint256",
          "name": "tokenId",
          "type": "uint256"
        },
        {
          "internalType": "uint256",
          "name": "price",
          "type": "uint256"
        },
        {
          "internalType": "uint256",
          "name": "endTime",
          "type": "uint256"
        }
      ],
      "name": "reauctionToken",
      "outputs": [],
      "stateMutability": "payable",
      "type": "function"
    },
    {
      "inputs": [
        {
          "internalType": "uint256",
          "name": "tokenId",
          "type": "uint256"
        },
        {
          "internalType": "uint256",
          "name": "price",
          "type": "uint256"
        }
      ],
      "name": "resellToken",
      "outputs": [],
      "stateMutability": "payable",
      "type": "function"
    },
    {
      "inputs": [
        {
          "internalType": "address",
          "name": "from",
          "type": "address"
        },
        {
          "internalType": "address",
          "name": "to",
          "type": "address"
        },
        {
          "internalType": "uint256",
          "name": "tokenId",
          "type": "uint256"
        }
      ],
      "name": "safeTransferFrom",
      "outputs": [],
      "stateMutability": "nonpayable",
      "type": "function"
    },
    {
      "inputs": [
        {
          "internalType": "address",
          "name": "from",
          "type": "address"
        },
        {
          "internalType": "address",
          "name": "to",
          "type": "address"
        },
        {
          "internalType": "uint256",
          "name": "tokenId",
          "type": "uint256"
        },
        {
          "internalType": "bytes",
          "name": "data",
          "type": "bytes"
        }
      ],
      "name": "safeTransferFrom",
      "outputs": [],
      "stateMutability": "nonpayable",
      "type": "function"
    },
    {
      "inputs": [
        {
          "internalType": "address",
          "name": "operator",
          "type": "address"
        },
        {
          "internalType": "bool",
          "name": "approved",
          "type": "bool"
        }
      ],
      "name": "setApprovalForAll",
      "outputs": [],
      "stateMutability": "nonpayable",
      "type": "function"
    },
    {
      "inputs": [
        {
          "internalType": "bytes4",
          "name": "interfaceId",
          "type": "bytes4"
        }
      ],
      "name": "supportsInterface",
      "outputs": [
        {
          "internalType": "bool",
          "name": "",
          "type": "bool"
        }
      ],
      "stateMutability": "view",
      "type": "function"
    },
    {
      "inputs": [],
      "name": "symbol",
      "outputs": [
        {
          "internalType": "string",
          "name": "",
          "type": "string"
        }
      ],
      "stateMutability": "view",
      "type": "function"
    },
    {
      "inputs": [
        {
          "internalType": "uint256",
          "name": "tokenId",
          "type": "uint256"
        }
      ],
      "name": "tokenURI",
      "outputs": [
        {
          "internalType": "string",
          "name": "",
          "type": "string"
        }
      ],
      "stateMutability": "view",
      "type": "function"
    },
    {
      "inputs": [
        {
          "internalType": "uint256",
          "name": "",
          "type": "uint256"
        },
        {
          "internalType": "uint256",
          "name": "",
          "type": "uint256"
        }
      ],
      "name": "trackingBidderAddress",
      "outputs": [
        {
          "internalType": "address",
          "name": "",
          "type": "address"
        }
      ],
      "stateMutability": "view",
      "type": "function"
    },
    {
      "inputs": [
        {
          "internalType": "uint256",
          "name": "",
          "type": "uint256"
        }
      ],
      "name": "trackingBidderCount",
      "outputs": [
        {
          "internalType": "uint256",
          "name": "",
          "type": "uint256"
        }
      ],
      "stateMutability": "view",
      "type": "function"
    },
    {
      "inputs": [
        {
          "internalType": "address",
          "name": "from",
          "type": "address"
        },
        {
          "internalType": "address",
          "name": "to",
          "type": "address"
        },
        {
          "internalType": "uint256",
          "name": "tokenId",
          "type": "uint256"
        }
      ],
      "name": "transferFrom",
      "outputs": [],
      "stateMutability": "nonpayable",
      "type": "function"
    },
    {
      "inputs": [
        {
          "internalType": "uint256",
          "name": "tokenId",
          "type": "uint256"
        }
      ],
      "name": "unlistMarketItem",
      "outputs": [],
      "stateMutability": "payable",
      "type": "function"
    },
    {
      "inputs": [
        {
          "internalType": "uint256",
          "name": "_listingPrice",
          "type": "uint256"
        }
      ],
      "name": "updateListingPrice",
      "outputs": [],
      "stateMutability": "payable",
      "type": "function"
    },
    {
      "inputs": [
        {
          "internalType": "uint256",
          "name": "tokenId",
          "type": "uint256"
        }
      ],
      "name": "withdraw",
      "outputs": [],
      "stateMutability": "payable",
      "type": "function"
    }
  ],
  "bytecode": "0x6080604052650246139ca8006009553480156200001b57600080fd5b506040518060400160405280601081526020016f4d657461766572736520546f6b656e7360801b815250604051806040016040528060048152602001631351551560e21b8152508160009081620000739190620001b6565b506001620000828282620001b6565b5050600a80546001600160a01b031916331790555062000286565b634e487b7160e01b600052604160045260246000fd5b634e487b7160e01b600052602260045260246000fd5b600281046001821680620000de57607f821691505b602082108103620000f357620000f3620000b3565b50919050565b60006200010a620001078381565b90565b92915050565b6200011b83620000f9565b81546008840282811b60001990911b908116901990911617825550505050565b60006200014a81848462000110565b505050565b818110156200016e57620001656000826200013b565b6001016200014f565b5050565b601f8211156200014a576000818152602090206020601f850104810160208510156200019b5750805b620001af6020601f8601048301826200014f565b5050505050565b81516001600160401b03811115620001d257620001d26200009d565b620001de8254620000c9565b620001eb82828562000172565b6020601f831160018114620002225760008415620002095750858201515b600019600886021c19811660028602178655506200027e565b600085815260208120601f198616915b8281101562000254578885015182556020948501946001909201910162000232565b86831015620002715784890151600019601f89166008021c191682555b6001600288020188555050505b505050505050565b613d6a80620002966000396000f3fe6080604052600436106101e35760003560e01c806354d54e0a11610102578063b88d4fde11610095578063c87b56dd11610064578063c87b56dd1461052b578063e219fc751461054b578063e978904f1461055e578063e985e9c51461058b57600080fd5b8063b88d4fde14610497578063b9a2de3a146104b7578063be9af536146104d7578063c6bc4514146104ea57600080fd5b806395d89b41116100d157806395d89b411461043a5780639ff82b3d1461044f578063a22cb46514610464578063ae677aa31461048457600080fd5b806354d54e0a146103d2578063615d1f03146103e75780636352211e146103fa57806370a082311461041a57600080fd5b80632e1a7d4d1161017a57806342842e0e1161014957806342842e0e1461037757806344e7877a14610397578063454a2ab3146103aa57806345f8fa80146103bd57600080fd5b80632e1a7d4d14610304578063339a4299146103175780633a30690c1461032c5780633f1ffcec1461033f57600080fd5b80630f08efe0116101b65780630f08efe01461028f57806312e85585146102b1578063202e3740146102cf57806323b872dd146102e457600080fd5b806301ffc9a7146101e857806306fdde031461021e578063081812fc14610240578063095ea7b31461026d575b600080fd5b3480156101f457600080fd5b50610208610203366004612c16565b6105ab565b6040516102159190612c41565b60405180910390f35b34801561022a57600080fd5b506102336105d6565b6040516102159190612ca5565b34801561024c57600080fd5b5061026061025b366004612cc7565b610668565b6040516102159190612d02565b34801561027957600080fd5b5061028d610288366004612d24565b61068f565b005b34801561029b57600080fd5b506102a461071d565b6040516102159190612e9b565b3480156102bd57600080fd5b506009545b6040516102159190612eac565b3480156102db57600080fd5b506102a461098f565b3480156102f057600080fd5b5061028d6102ff366004612eba565b610b8f565b61028d610312366004612cc7565b610bc0565b34801561032357600080fd5b506102a4610da6565b61028d61033a366004612f0a565b61101a565b34801561034b57600080fd5b506102c261035a366004612f3f565b600c60209081526000928352604080842090915290825290205481565b34801561038357600080fd5b5061028d610392366004612eba565b6110f1565b61028d6103a5366004612cc7565b61110c565b61028d6103b8366004612cc7565b611208565b3480156103c957600080fd5b506102a461142b565b3480156103de57600080fd5b506102a4611695565b6102c26103f5366004613078565b611898565b34801561040657600080fd5b50610260610415366004612cc7565b6118e0565b34801561042657600080fd5b506102c26104353660046130f6565b611915565b34801561044657600080fd5b50610233611959565b34801561045b57600080fd5b506102a4611968565b34801561047057600080fd5b5061028d61047f366004613117565b611b68565b61028d610492366004612cc7565b611b77565b3480156104a357600080fd5b5061028d6104b236600461314a565b611ba6565b3480156104c357600080fd5b5061028d6104d2366004612cc7565b611bd8565b61028d6104e5366004612cc7565b611e5c565b3480156104f657600080fd5b506102606105053660046131bd565b600e6020908152600092835260408084209091529082529020546001600160a01b031681565b34801561053757600080fd5b50610233610546366004612cc7565b611f68565b61028d6105593660046131bd565b612070565b34801561056a57600080fd5b506102c2610579366004612cc7565b600d6020526000908152604090205481565b34801561059757600080fd5b506102086105a63660046131df565b612125565b60006001600160e01b03198216632483248360e11b14806105d057506105d082612153565b92915050565b6060600080546105e590613217565b80601f016020809104026020016040519081016040528092919081815260200182805461061190613217565b801561065e5780601f106106335761010080835404028352916020019161065e565b820191906000526020600020905b81548152906001019060200180831161064157829003601f168201915b5050505050905090565b6000610673826121a3565b506000908152600460205260409020546001600160a01b031690565b600061069a826118e0565b9050806001600160a01b0316836001600160a01b0316036106d65760405162461bcd60e51b81526004016106cd90613284565b60405180910390fd5b336001600160a01b03821614806106f257506106f28133612125565b61070e5760405162461bcd60e51b81526004016106cd906132ee565b61071883836121da565b505050565b6060600061072a60075490565b90506000805b828110156107bf5730600b6000610748846001613314565b81526020810191909152604001600020600301546001600160a01b031614801561079a5750600b600061077c836001613314565b8152602081019190915260400160002060050154610100900460ff16155b156107ad576107aa600183613314565b91505b806107b781613327565b915050610730565b506000808267ffffffffffffffff8111156107dc576107dc612f72565b60405190808252806020026020018201604052801561081557816020015b610802612b98565b8152602001906001900390816107fa5790505b50905060005b848110156109865730600b6000610833846001613314565b81526020810191909152604001600020600301546001600160a01b03161480156108855750600b6000610867836001613314565b8152602081019190915260400160002060050154610100900460ff16155b15610974576000610897826001613314565b6000818152600b60209081526040918290208251610160810184528154815260018201546001600160a01b0390811693820193909352600282015483169381019390935260038101548216606084015260048101546080840152600581015460ff808216151560a0860152610100918290048116151560c0860152600683015460e08601526007830154161515908401526008810154610120840152600981015490911661014083015285519293509185908790811061095957610959613341565b602090810291909101015261096f600186613314565b945050505b8061097e81613327565b91505061081b565b50949350505050565b6060600061099c60075490565b905060008060005b838110156109fe5733600b60006109bc846001613314565b81526020810191909152604001600020600301546001600160a01b0316036109ec576109e9600184613314565b92505b806109f681613327565b9150506109a4565b5060008267ffffffffffffffff811115610a1a57610a1a612f72565b604051908082528060200260200182016040528015610a5357816020015b610a40612b98565b815260200190600190039081610a385790505b50905060005b848110156109865733600b6000610a71846001613314565b81526020810191909152604001600020600301546001600160a01b031603610b7d576000610aa0826001613314565b6000818152600b60209081526040918290208251610160810184528154815260018201546001600160a01b0390811693820193909352600282015483169381019390935260038101548216606084015260048101546080840152600581015460ff808216151560a0860152610100918290048116151560c0860152600683015460e086015260078301541615159084015260088101546101208401526009810154909116610140830152855192935091859087908110610b6257610b62613341565b6020908102919091010152610b78600186613314565b945050505b80610b8781613327565b915050610a59565b610b993382612248565b610bb55760405162461bcd60e51b81526004016106cd906133a1565b6107188383836122a6565b6000818152600d602052604081205490805b82811015610cdf576000848152600e602052604081203391610bf5846001613314565b81526020810191909152604001600020546001600160a01b031603610ccd57610c1f816001613314565b6000858152600c602090815260408083203384529091528120805491905590925080610c5d5760405162461bcd60e51b81526004016106cd906133dd565b604051339082156108fc029083906000818181858888f19350505050158015610c8a573d6000803e3d6000fd5b507f039d3e7ccc0d8edf3fb8206bf9f58888c4cced8c157c730a2407a54aad7c865c33826001604051610cbf939291906133ed565b60405180910390a150610cdf565b80610cd781613327565b915050610bd2565b5060008111610d005760405162461bcd60e51b81526004016106cd90613436565b600160005b83811015610d7e576000858152600e6020526040812081610d27846001613314565b81526020808201929092526040908101600090812054898252600c84528282206001600160a01b039091168083529352205490915015610d6b576000925050610d7e565b5080610d7681613327565b915050610d05565b508015610da0576000848152600b60205260409020600501805461ff00191690555b50505050565b60606000610db360075490565b905060008060005b83811015610e4f5733600b6000610dd3846001613314565b81526020810191909152604001600020600201546001600160a01b0316148015610e2a5750600b6000610e07836001613314565b815260208101919091526040016000206005015460ff6101009091041615156001145b15610e3d57610e3a600184613314565b92505b80610e4781613327565b915050610dbb565b5060008267ffffffffffffffff811115610e6b57610e6b612f72565b604051908082528060200260200182016040528015610ea457816020015b610e91612b98565b815260200190600190039081610e895790505b50905060005b848110156109865733600b6000610ec2846001613314565b81526020810191909152604001600020600201546001600160a01b0316148015610f195750600b6000610ef6836001613314565b815260208101919091526040016000206005015460ff6101009091041615156001145b15611008576000610f2b826001613314565b6000818152600b60209081526040918290208251610160810184528154815260018201546001600160a01b0390811693820193909352600282015483169381019390935260038101548216606084015260048101546080840152600581015460ff808216151560a0860152610100918290048116151560c0860152600683015460e086015260078301541615159084015260088101546101208401526009810154909116610140830152855192935091859087908110610fed57610fed613341565b6020908102919091010152611003600186613314565b945050505b8061101281613327565b915050610eaa565b6000838152600b60205260409020600301546001600160a01b031633146110535760405162461bcd60e51b81526004016106cd9061348d565b60095434146110745760405162461bcd60e51b81526004016106cd906134de565b6000838152600b60205260409020600581018054600483018590556002830180546001600160a01b0319908116331790915560038401805490911630179055600880840186905561ffff1990911661010017909155600682018390556007909101805460ff191690556110e6906123ce565b6107183330856122a6565b61071883838360405180602001604052806000815250611ba6565b6000818152600b60205260409020600201546009546001600160a01b0390911690341461114b5760405162461bcd60e51b81526004016106cd90613535565b336001600160a01b038216146111735760405162461bcd60e51b81526004016106cd9061356e565b6000828152600b602052604090206003810180546001600160a01b0319908116331790915560058201805460ff191660011790556002909101805490911690556111c1600880546001019055565b6111cc3033846122a6565b600a546009546040516001600160a01b039092169181156108fc0291906000818181858888f19350505050158015610718573d6000803e3d6000fd5b6000818152600b60205260409020600681015460088201546009909201549091906001600160a01b03164283116112515760405162461bcd60e51b81526004016106cd906135a6565b8134116112705760405162461bcd60e51b81526004016106cd90613601565b6001600160a01b038116156113fd576000848152600c602090815260408083206001600160a01b0385168452909152812080548492906112b1908490613314565b90915550506000848152600d6020526040812054900361132e576000848152600d602052604081208054600192906112ea908490613314565b90915550506000848152600d6020908152604080832054600e8352818420908452909152902080546001600160a01b0319166001600160a01b0383161790556113fd565b6000848152600d6020526040812054905b8181101561139c576000868152600e602052604081206001600160a01b0385169161136b846001613314565b81526020810191909152604001600020546001600160a01b03161461139c578061139481613327565b91505061133f565b506000858152600d602052604081208054600192906113bc908490613314565b9091555050506000848152600d6020908152604080832054600e8352818420908452909152902080546001600160a01b0319166001600160a01b0383161790555b5050506000908152600b602052604090206009810180546001600160a01b0319163317905534600890910155565b6060600061143860075490565b905060008060005b838110156114cf5733600b6000611458846001613314565b81526020810191909152604001600020600201546001600160a01b03161480156114aa5750600b600061148c836001613314565b8152602081019190915260400160002060050154610100900460ff16155b156114bd576114ba600184613314565b92505b806114c781613327565b915050611440565b5060008267ffffffffffffffff8111156114eb576114eb612f72565b60405190808252806020026020018201604052801561152457816020015b611511612b98565b8152602001906001900390816115095790505b50905060005b848110156109865733600b6000611542846001613314565b81526020810191909152604001600020600201546001600160a01b03161480156115945750600b6000611576836001613314565b8152602081019190915260400160002060050154610100900460ff16155b156116835760006115a6826001613314565b6000818152600b60209081526040918290208251610160810184528154815260018201546001600160a01b0390811693820193909352600282015483169381019390935260038101548216606084015260048101546080840152600581015460ff808216151560a0860152610100918290048116151560c0860152600683015460e08601526007830154161515908401526008810154610120840152600981015490911661014083015285519293509185908790811061166857611668613341565b602090810291909101015261167e600186613314565b945050505b8061168d81613327565b91505061152a565b606060006116a260075490565b90506000805b8281101561170457600b60006116bf836001613314565b8152602081019190915260400160002060050154610100900460ff1615156001036116f2576116ef600183613314565b91505b806116fc81613327565b9150506116a8565b506000808267ffffffffffffffff81111561172157611721612f72565b60405190808252806020026020018201604052801561175a57816020015b611747612b98565b81526020019060019003908161173f5790505b50905060005b8481101561098657600b6000611777836001613314565b8152602081019190915260400160002060050154610100900460ff1615156001036118865760006117a9826001613314565b6000818152600b60209081526040918290208251610160810184528154815260018201546001600160a01b0390811693820193909352600282015483169381019390935260038101548216606084015260048101546080840152600581015460ff808216151560a0860152610100918290048116151560c0860152600683015460e08601526007830154161515908401526008810154610120840152600981015490911661014083015285519293509185908790811061186b5761186b613341565b6020908102919091010152611881600186613314565b945050505b8061189081613327565b915050611760565b60006118a8600780546001019055565b60006118b360075490565b90506118bf33826123f5565b6118c981876124f0565b6118d581868686612578565b90505b949350505050565b6000818152600260205260408120546001600160a01b0316806105d05760405162461bcd60e51b81526004016106cd90613645565b60006001600160a01b03821661193d5760405162461bcd60e51b81526004016106cd9061369b565b506001600160a01b031660009081526003602052604090205490565b6060600180546105e590613217565b6060600061197560075490565b905060008060005b838110156119d75733600b6000611995846001613314565b81526020810191909152604001600020600101546001600160a01b0316036119c5576119c2600184613314565b92505b806119cf81613327565b91505061197d565b5060008267ffffffffffffffff8111156119f3576119f3612f72565b604051908082528060200260200182016040528015611a2c57816020015b611a19612b98565b815260200190600190039081611a115790505b50905060005b848110156109865733600b6000611a4a846001613314565b81526020810191909152604001600020600101546001600160a01b031603611b56576000611a79826001613314565b6000818152600b60209081526040918290208251610160810184528154815260018201546001600160a01b0390811693820193909352600282015483169381019390935260038101548216606084015260048101546080840152600581015460ff808216151560a0860152610100918290048116151560c0860152600683015460e086015260078301541615159084015260088101546101208401526009810154909116610140830152855192935091859087908110611b3b57611b3b613341565b6020908102919091010152611b51600186613314565b945050505b80611b6081613327565b915050611a32565b611b733383836127e5565b5050565b600a546001600160a01b03163314611ba15760405162461bcd60e51b81526004016106cd906136f8565b600955565b611bb03383612248565b611bcc5760405162461bcd60e51b81526004016106cd906133a1565b610da084848484612887565b6000818152600d6020908152604080832054600b909252909120600681015460079091015460ff168015611c1e5760405162461bcd60e51b81526004016106cd906135a6565b6000848152600b60205260409020600701805460ff19166001179055611c48600880546001019055565b6000848152600b60205260409020600281015460098201546008909201546001600160a01b0391821692909116908115611dd6576000878152600b602090815260408083206003810180546001600160a01b03199081166001600160a01b038916179091556005820180546002840180548416905561ffff191661010117905560098201805490911690556008810184905560040184905580519182019052908152611cf990309084908a90612887565b6040516001600160a01b0384169082156108fc029083906000818181858888f19350505050158015611d2f573d6000803e3d6000fd5b50600160005b87811015611dae576000898152600e6020526040812081611d57846001613314565b815260208082019290925260409081016000908120548d8252600c84528282206001600160a01b039091168083529352205490915015611d9b576000925050611dae565b5080611da681613327565b915050611d35565b508015611dd0576000888152600b60205260409020600501805461ff00191690555b50611e53565b6000878152600b602090815260408083206003810180546001600160a01b0389166001600160a01b03199182168117909255600583018054600285018054841690941790935561ffff19909216600117909155600982018054909116905560080183905580519182019052908152611e5390309085908a90612887565b50505050505050565b6000818152600b6020526040902060048101546002909101546001600160a01b0316348214611e9d5760405162461bcd60e51b81526004016106cd90613762565b6000838152600b602052604090206003810180546001600160a01b0319908116331790915560058201805460ff19166001179055600290910180549091169055611eeb600880546001019055565b611ef63033856122a6565b600a546009546040516001600160a01b039092169181156108fc0291906000818181858888f19350505050158015611f32573d6000803e3d6000fd5b506040516001600160a01b038216903480156108fc02916000818181858888f19350505050158015610da0573d6000803e3d6000fd5b6060611f73826121a3565b60008281526006602052604081208054611f8c90613217565b80601f0160208091040260200160405190810160405280929190818152602001828054611fb890613217565b80156120055780601f10611fda57610100808354040283529160200191612005565b820191906000526020600020905b815481529060010190602001808311611fe857829003601f168201915b50505050509050600061202360408051602081019091526000815290565b90508051600003612035575092915050565b81511561206757808260405160200161204f929190613794565b60405160208183030381529060405292505050919050565b6118d8846128ba565b6000828152600b60205260409020600301546001600160a01b031633146120a95760405162461bcd60e51b81526004016106cd9061348d565b60095434146120ca5760405162461bcd60e51b81526004016106cd906134de565b6000828152600b6020526040902060058101805460ff19169055600481018290556002810180546001600160a01b03199081163317909155600390910180549091163017905561211a60086123ce565b611b733330846122a6565b6001600160a01b03918216600090815260056020908152604080832093909416825291909152205460ff1690565b60006001600160e01b031982166380ac58cd60e01b148061218457506001600160e01b03198216635b5e139f60e01b145b806105d057506301ffc9a760e01b6001600160e01b03198316146105d0565b6000818152600260205260409020546001600160a01b03166121d75760405162461bcd60e51b81526004016106cd90613645565b50565b600081815260046020526040902080546001600160a01b0319166001600160a01b038416908117909155819061220f826118e0565b6001600160a01b03167f8c5be1e5ebec7d5bd14f71427d1e84f3dd0314c0f7b2291e5b200ac8c7c3b92560405160405180910390a45050565b600080612254836118e0565b9050806001600160a01b0316846001600160a01b0316148061227b575061227b8185612125565b806118d85750836001600160a01b031661229484610668565b6001600160a01b031614949350505050565b826001600160a01b03166122b9826118e0565b6001600160a01b0316146122df5760405162461bcd60e51b81526004016106cd906137ee565b6001600160a01b0382166123055760405162461bcd60e51b81526004016106cd9061383f565b826001600160a01b0316612318826118e0565b6001600160a01b03161461233e5760405162461bcd60e51b81526004016106cd906137ee565b600081815260046020908152604080832080546001600160a01b03199081169091556001600160a01b0387811680865260038552838620805460001901905590871680865283862080546001019055868652600290945282852080549092168417909155905184937fddf252ad1be2c89b69c2b068fc378daa952ba7f163c4a11628f55a4df523b3ef91a4505050565b8054806123ed5760405162461bcd60e51b81526004016106cd90613883565b600019019055565b6001600160a01b03821661241b5760405162461bcd60e51b81526004016106cd906138c5565b6000818152600260205260409020546001600160a01b0316156124505760405162461bcd60e51b81526004016106cd90613909565b6000818152600260205260409020546001600160a01b0316156124855760405162461bcd60e51b81526004016106cd90613909565b6001600160a01b038216600081815260036020908152604080832080546001019055848352600290915280822080546001600160a01b0319168417905551839291907fddf252ad1be2c89b69c2b068fc378daa952ba7f163c4a11628f55a4df523b3ef908290a45050565b6000828152600260205260409020546001600160a01b03166125245760405162461bcd60e51b81526004016106cd90613964565b600082815260066020526040902061253c8282613a14565b507ff8e1a15aba9398e019f0b49df1a4fde98ee17ae345cb5f6b5e2c27f5033e8ce78260405161256c9190612eac565b60405180910390a15050565b600083116125985760405162461bcd60e51b81526004016106cd90613b0c565b60095434146125b95760405162461bcd60e51b81526004016106cd90613b5d565b604051806101600160405280858152602001336001600160a01b03168152602001336001600160a01b03168152602001306001600160a01b03168152602001848152602001600015158152602001831515815260200182815260200160001515815260200184815260200160006001600160a01b0316815250600b60008681526020019081526020016000206000820151816000015560208201518160010160006101000a8154816001600160a01b0302191690836001600160a01b0316021790555060408201518160020160006101000a8154816001600160a01b0302191690836001600160a01b0316021790555060608201518160030160006101000a8154816001600160a01b0302191690836001600160a01b031602179055506080820151816004015560a08201518160050160006101000a81548160ff02191690831515021790555060c08201518160050160016101000a81548160ff02191690831515021790555060e082015181600601556101008201518160070160006101000a81548160ff02191690831515021790555061012082015181600801556101408201518160090160006101000a8154816001600160a01b0302191690836001600160a01b031602179055509050506127923330866122a6565b837fa4b4f46cc52348966722b5ccac7c3b6eeffc992aaf09e6b4520bd06f1d33821e333330876000888860008c60006040516127d79a99989796959493929190613b8c565b60405180910390a250505050565b816001600160a01b0316836001600160a01b0316036128165760405162461bcd60e51b81526004016106cd90613c55565b6001600160a01b0383811660008181526005602090815260408083209487168084529490915290819020805460ff1916851515179055517f17307eab39ab6107e8899845ad3d59bd9653f200f220920489ca2b5937696c319061287a908590612c41565b60405180910390a3505050565b6128928484846122a6565b61289e8484848461292e565b610da05760405162461bcd60e51b81526004016106cd90613cb4565b60606128c5826121a3565b60006128dc60408051602081019091526000815290565b905060008151116128fc5760405180602001604052806000815250612927565b8061290684612a2c565b604051602001612917929190613794565b6040516020818303038152906040525b9392505050565b60006001600160a01b0384163b15612a2457604051630a85bd0160e11b81526001600160a01b0385169063150b7a0290612972903390899088908890600401613cc4565b6020604051808303816000875af19250505080156129ad575060408051601f3d908101601f191682019092526129aa91810190613d13565b60015b612a0a573d8080156129db576040519150601f19603f3d011682016040523d82523d6000602084013e6129e0565b606091505b508051600003612a025760405162461bcd60e51b81526004016106cd90613cb4565b805181602001fd5b6001600160e01b031916630a85bd0160e11b1490506118d8565b5060016118d8565b60606000612a3983612ac0565b600101905060008167ffffffffffffffff811115612a5957612a59612f72565b6040519080825280601f01601f191660200182016040528015612a83576020820181803683370190505b5090508181016020015b600019016f181899199a1a9b1b9c1cb0b131b232b360811b600a86061a8153600a8504945084612a8d575b509392505050565b60008072184f03e93ff9f4daa797ed6e38ed64bf6a1f0160401b8310612aff5772184f03e93ff9f4daa797ed6e38ed64bf6a1f0160401b830492506040015b6d04ee2d6d415b85acef81000000008310612b2b576d04ee2d6d415b85acef8100000000830492506020015b662386f26fc100008310612b4957662386f26fc10000830492506010015b6305f5e1008310612b61576305f5e100830492506008015b6127108310612b7557612710830492506004015b60648310612b87576064830492506002015b600a83106105d05760010192915050565b6040805161016081018252600080825260208201819052918101829052606081018290526080810182905260a0810182905260c0810182905260e081018290526101008101829052610120810182905261014081019190915290565b6001600160e01b031981165b81146121d757600080fd5b80356105d081612bf4565b600060208284031215612c2b57612c2b600080fd5b60006118d88484612c0b565b8015155b82525050565b602081016105d08284612c37565b60005b83811015612c6a578181015183820152602001612c52565b50506000910152565b6000612c7d825190565b808452602084019350612c94818560208601612c4f565b601f01601f19169290920192915050565b602080825281016129278184612c73565b80612c00565b80356105d081612cb6565b600060208284031215612cdc57612cdc600080fd5b60006118d88484612cbc565b60006001600160a01b0382166105d0565b612c3b81612ce8565b602081016105d08284612cf9565b612c0081612ce8565b80356105d081612d10565b60008060408385031215612d3a57612d3a600080fd5b6000612d468585612d19565b9250506020612d5785828601612cbc565b9150509250929050565b80612c3b565b8051610160830190612d798482612d61565b506020820151612d8c6020850182612cf9565b506040820151612d9f6040850182612cf9565b506060820151612db26060850182612cf9565b506080820151612dc56080850182612d61565b5060a0820151612dd860a0850182612c37565b5060c0820151612deb60c0850182612c37565b5060e0820151612dfe60e0850182612d61565b50610100820151612e13610100850182612c37565b50610120820151612e28610120850182612d61565b50610140820151610da0610140850182612cf9565b6000612e498383612d67565b50506101600190565b6000612e5c825190565b80845260209384019383018060005b83811015612e90578151612e7f8882612e3d565b975060208301925050600101612e6b565b509495945050505050565b602080825281016129278184612e52565b602081016105d08284612d61565b600080600060608486031215612ed257612ed2600080fd5b6000612ede8686612d19565b9350506020612eef86828701612d19565b9250506040612f0086828701612cbc565b9150509250925092565b600080600060608486031215612f2257612f22600080fd5b6000612f2e8686612cbc565b9350506020612eef86828701612cbc565b60008060408385031215612f5557612f55600080fd5b6000612f618585612cbc565b9250506020612d5785828601612d19565b634e487b7160e01b600052604160045260246000fd5b601f19601f830116810181811067ffffffffffffffff82111715612fae57612fae612f72565b6040525050565b6000612fc060405190565b9050612fcc8282612f88565b919050565b600067ffffffffffffffff821115612feb57612feb612f72565b601f19601f83011660200192915050565b82818337506000910152565b600061301b61301684612fd1565b612fb5565b90508281526020810184848401111561303657613036600080fd5b612ab8848285612ffc565b600082601f83011261305557613055600080fd5b81356118d8848260208601613008565b801515612c00565b80356105d081613065565b6000806000806080858703121561309157613091600080fd5b843567ffffffffffffffff8111156130ab576130ab600080fd5b6130b787828801613041565b94505060206130c887828801612cbc565b93505060406130d98782880161306d565b92505060606130ea87828801612cbc565b91505092959194509250565b60006020828403121561310b5761310b600080fd5b60006118d88484612d19565b6000806040838503121561312d5761312d600080fd5b60006131398585612d19565b9250506020612d578582860161306d565b6000806000806080858703121561316357613163600080fd5b600061316f8787612d19565b945050602061318087828801612d19565b935050604061319187828801612cbc565b925050606085013567ffffffffffffffff8111156131b1576131b1600080fd5b6130ea87828801613041565b600080604083850312156131d3576131d3600080fd5b6000612d468585612cbc565b600080604083850312156131f5576131f5600080fd5b6000612f618585612d19565b634e487b7160e01b600052602260045260246000fd5b60028104600182168061322b57607f821691505b60208210810361323d5761323d613201565b50919050565b602181526000602082017f4552433732313a20617070726f76616c20746f2063757272656e74206f776e658152603960f91b602082015291505b5060400190565b602080825281016105d081613243565b603d81526000602082017f4552433732313a20617070726f76652063616c6c6572206973206e6f7420746f81527f6b656e206f776e6572206f7220617070726f76656420666f7220616c6c0000006020820152915061327d565b602080825281016105d081613294565b634e487b7160e01b600052601160045260246000fd5b808201808211156105d0576105d06132fe565b6000600019820361333a5761333a6132fe565b5060010190565b634e487b7160e01b600052603260045260246000fd5b602d81526000602082017f4552433732313a2063616c6c6572206973206e6f7420746f6b656e206f776e6581526c1c881bdc88185c1c1c9bdd9959609a1b6020820152915061327d565b602080825281016105d081613357565b6012815260006020820171105b1c9958591e481dda5d1a191c985dd95960721b815291505b5060200190565b602080825281016105d0816133b1565b606081016133fb8286612cf9565b6134086020830185612d61565b6118d86040830184612c37565b600a8152600060208201692737ba103134b23232b960b11b815291506133d6565b602080825281016105d081613415565b602a81526000602082017f4f6e6c79206974656d206f776e65722063616e20706572666f726d20746869738152691037b832b930ba34b7b760b11b6020820152915061327d565b602080825281016105d081613446565b602481526000602082017f5072696365206d75737420626520657175616c20746f206c697374696e6720708152637269636560e01b6020820152915061327d565b602080825281016105d08161349d565b602a81526000602082017f506c65617365207375626d69742076616c756520657175616c20746f206c697381526974696e6720707269636560b01b6020820152915061327d565b602080825281016105d0816134ee565b60128152600060208201712cb7ba9030b932903737ba1039b2b63632b960711b815291506133d6565b602080825281016105d081613545565b6011815260006020820170105d58dd1a5bdb881a185cc8195b991959607a1b815291506133d6565b602080825281016105d08161357e565b602e81526000602082017f56616c7565206d7573742062652067726561746572207468616e20637572726581526d1b9d081a1a59da195cdd08189a5960921b6020820152915061327d565b602080825281016105d0816135b6565b601881526000602082017f4552433732313a20696e76616c696420746f6b656e2049440000000000000000815291506133d6565b602080825281016105d081613611565b602981526000602082017f4552433732313a2061646472657373207a65726f206973206e6f7420612076618152683634b21037bbb732b960b91b6020820152915061327d565b602080825281016105d081613655565b603081526000602082017f4f6e6c79206d61726b6574706c616365206f776e65722063616e20757064617481526f32903634b9ba34b73390383934b1b29760811b6020820152915061327d565b602080825281016105d0816136ab565b604081526000602082017f506c65617365207375626d6974207468652061736b696e67207072696365206981527f6e206f7264657220746f20636f6d706c657465207468652070757263686173656020820152915061327d565b602080825281016105d081613708565b600061377c825190565b61378a818560208601612c4f565b9290920192915050565b60006137a08285613772565b91506118d88284613772565b602581526000602082017f4552433732313a207472616e736665722066726f6d20696e636f72726563742081526437bbb732b960d91b6020820152915061327d565b602080825281016105d0816137ac565b602481526000602082017f4552433732313a207472616e7366657220746f20746865207a65726f206164648152637265737360e01b6020820152915061327d565b602080825281016105d0816137fe565b601b81526000602082017f436f756e7465723a2064656372656d656e74206f766572666c6f770000000000815291506133d6565b602080825281016105d08161384f565b60208082527f4552433732313a206d696e7420746f20746865207a65726f2061646472657373910190815260006133d6565b602080825281016105d081613893565b601c81526000602082017f4552433732313a20746f6b656e20616c7265616479206d696e74656400000000815291506133d6565b602080825281016105d0816138d5565b602e81526000602082017f45524337323155524953746f726167653a2055524920736574206f66206e6f6e81526d32bc34b9ba32b73a103a37b5b2b760911b6020820152915061327d565b602080825281016105d081613919565b60006105d06139808381565b90565b61398c83613974565b81546008840282811b60001990911b908116901990911617825550505050565b6000610718818484613983565b81811015611b73576139cc6000826139ac565b6001016139b9565b601f821115610718576000818152602090206020601f850104810160208510156139fb5750805b613a0d6020601f8601048301826139b9565b5050505050565b815167ffffffffffffffff811115613a2e57613a2e612f72565b613a388254613217565b613a438282856139d4565b6020601f831160018114613a775760008415613a5f5750858201515b600019600886021c1981166002860217865550613ad0565b600085815260208120601f198616915b82811015613aa75788850151825560209485019460019092019101613a87565b86831015613ac35784890151600019601f89166008021c191682555b6001600288020188555050505b505050505050565b601c81526000602082017f5072696365206d757374206265206174206c6561737420312077656900000000815291506133d6565b602080825281016105d081613ad8565b602481526000602082017f56616c7565206d75737420626520657175616c20746f206c697374696e6720708152637269636560e01b6020820152915061327d565b602080825281016105d081613b1c565b60006105d082612ce8565b60006105d082613b6d565b612c3b81613b78565b6101408101613b9b828d612cf9565b613ba8602083018c612cf9565b613bb5604083018b612cf9565b613bc2606083018a612d61565b613bcf6080830189612c37565b613bdc60a0830188612c37565b613be960c0830187612d61565b613bf660e0830186612c37565b613c04610100830185612d61565b613c12610120830184613b83565b9b9a5050505050505050505050565b601981526000602082017f4552433732313a20617070726f766520746f2063616c6c657200000000000000815291506133d6565b602080825281016105d081613c21565b603281526000602082017f4552433732313a207472616e7366657220746f206e6f6e20455243373231526581527131b2b4bb32b91034b6b83632b6b2b73a32b960711b6020820152915061327d565b602080825281016105d081613c65565b60808101613cd28287612cf9565b613cdf6020830186612cf9565b613cec6040830185612d61565b8181036060830152613cfe8184612c73565b9695505050505050565b80516105d081612bf4565b600060208284031215613d2857613d28600080fd5b60006118d88484613d0856fea264697066735822122059271f8efd8aab32058b998b16e4892e50bf9bf6e0f905e69904b145093f901064736f6c63430008110033",
  "linkReferences": {},
  "deployedLinkReferences": {}
}